{
  "address": "0x4FD2e2731484711E546Eabeca7F66CF1FB554Bd4",
  "abi": [
    {
      "inputs": [],
      "stateMutability": "nonpayable",
      "type": "constructor"
    },
    {
      "inputs": [
        {
          "internalType": "address",
          "name": "_wallet",
          "type": "address"
        }
      ],
      "name": "addAdmin",
      "outputs": [],
      "stateMutability": "nonpayable",
      "type": "function"
    },
    {
      "inputs": [
        {
          "internalType": "address",
          "name": "wallet",
          "type": "address"
        },
        {
          "internalType": "uint256",
          "name": "matricula",
          "type": "uint256"
        },
        {
          "internalType": "string",
          "name": "uf",
          "type": "string"
        },
        {
          "internalType": "string",
          "name": "localNascimento",
          "type": "string"
        },
        {
          "internalType": "string",
          "name": "localRegistro",
          "type": "string"
        }
      ],
      "name": "addDocumentNascimento",
      "outputs": [],
      "stateMutability": "nonpayable",
      "type": "function"
    },
    {
      "inputs": [
        {
          "internalType": "address",
          "name": "_wallet",
          "type": "address"
        },
        {
          "components": [
            {
              "internalType": "string",
              "name": "name",
              "type": "string"
            },
            {
              "internalType": "uint256",
              "name": "cpf",
              "type": "uint256"
            },
            {
              "internalType": "uint256",
              "name": "id",
              "type": "uint256"
            },
            {
              "internalType": "address",
              "name": "mae",
              "type": "address"
            },
            {
              "internalType": "address",
              "name": "pai",
              "type": "address"
            },
            {
              "internalType": "string",
              "name": "dataNascimento",
              "type": "string"
            },
            {
              "internalType": "string",
              "name": "naturalidade",
              "type": "string"
            },
            {
              "internalType": "string",
              "name": "nacionalidade",
              "type": "string"
            },
            {
              "internalType": "string",
              "name": "sexo",
              "type": "string"
            },
            {
              "internalType": "bool",
              "name": "changed",
              "type": "bool"
            }
          ],
          "internalType": "struct Database.Person",
          "name": "person",
          "type": "tuple"
        }
      ],
      "name": "addPerson",
      "outputs": [],
      "stateMutability": "nonpayable",
      "type": "function"
    },
    {
      "inputs": [
        {
          "internalType": "address",
          "name": "",
          "type": "address"
        }
      ],
      "name": "admins",
      "outputs": [
        {
          "internalType": "bool",
          "name": "",
          "type": "bool"
        }
      ],
      "stateMutability": "view",
      "type": "function"
    },
    {
      "inputs": [
        {
          "internalType": "address",
          "name": "_wallet",
          "type": "address"
        },
        {
          "internalType": "string",
          "name": "_newName",
          "type": "string"
        }
      ],
      "name": "editName",
      "outputs": [],
      "stateMutability": "nonpayable",
      "type": "function"
    },
    {
      "inputs": [
        {
          "internalType": "address",
          "name": "_wallet",
          "type": "address"
        }
      ],
      "name": "getPersonByWallet",
      "outputs": [
        {
          "components": [
            {
              "internalType": "string",
              "name": "name",
              "type": "string"
            },
            {
              "internalType": "uint256",
              "name": "cpf",
              "type": "uint256"
            },
            {
              "internalType": "uint256",
              "name": "id",
              "type": "uint256"
            },
            {
              "internalType": "address",
              "name": "mae",
              "type": "address"
            },
            {
              "internalType": "address",
              "name": "pai",
              "type": "address"
            },
            {
              "internalType": "string",
              "name": "dataNascimento",
              "type": "string"
            },
            {
              "internalType": "string",
              "name": "naturalidade",
              "type": "string"
            },
            {
              "internalType": "string",
              "name": "nacionalidade",
              "type": "string"
            },
            {
              "internalType": "string",
              "name": "sexo",
              "type": "string"
            },
            {
              "internalType": "bool",
              "name": "changed",
              "type": "bool"
            }
          ],
          "internalType": "struct Database.Person",
          "name": "person",
          "type": "tuple"
        }
      ],
      "stateMutability": "view",
      "type": "function"
    },
    {
      "inputs": [],
      "name": "getPersonData",
      "outputs": [
        {
          "components": [
            {
              "internalType": "string",
              "name": "name",
              "type": "string"
            },
            {
              "internalType": "uint256",
              "name": "cpf",
              "type": "uint256"
            },
            {
              "internalType": "uint256",
              "name": "id",
              "type": "uint256"
            },
            {
              "internalType": "address",
              "name": "mae",
              "type": "address"
            },
            {
              "internalType": "address",
              "name": "pai",
              "type": "address"
            },
            {
              "internalType": "string",
              "name": "dataNascimento",
              "type": "string"
            },
            {
              "internalType": "string",
              "name": "naturalidade",
              "type": "string"
            },
            {
              "internalType": "string",
              "name": "nacionalidade",
              "type": "string"
            },
            {
              "internalType": "string",
              "name": "sexo",
              "type": "string"
            },
            {
              "internalType": "bool",
              "name": "changed",
              "type": "bool"
            }
          ],
          "internalType": "struct Database.Person",
          "name": "",
          "type": "tuple"
        }
      ],
      "stateMutability": "view",
      "type": "function"
    },
    {
      "inputs": [
        {
          "internalType": "address",
          "name": "",
          "type": "address"
        }
      ],
      "name": "idChain",
      "outputs": [
        {
          "internalType": "string",
          "name": "name",
          "type": "string"
        },
        {
          "internalType": "uint256",
          "name": "cpf",
          "type": "uint256"
        },
        {
          "internalType": "uint256",
          "name": "id",
          "type": "uint256"
        },
        {
          "internalType": "address",
          "name": "mae",
          "type": "address"
        },
        {
          "internalType": "address",
          "name": "pai",
          "type": "address"
        },
        {
          "internalType": "string",
          "name": "dataNascimento",
          "type": "string"
        },
        {
          "internalType": "string",
          "name": "naturalidade",
          "type": "string"
        },
        {
          "internalType": "string",
          "name": "nacionalidade",
          "type": "string"
        },
        {
          "internalType": "string",
          "name": "sexo",
          "type": "string"
        },
        {
          "internalType": "bool",
          "name": "changed",
          "type": "bool"
        }
      ],
      "stateMutability": "view",
      "type": "function"
    },
    {
      "inputs": [
        {
          "components": [
            {
              "internalType": "uint256",
              "name": "digital",
              "type": "uint256"
            }
          ],
          "internalType": "struct Database.Digital",
          "name": "digital",
          "type": "tuple"
        }
      ],
      "name": "recoverWallet",
      "outputs": [
        {
          "internalType": "address",
          "name": "wallet",
          "type": "address"
        }
      ],
      "stateMutability": "view",
      "type": "function"
    },
    {
      "inputs": [],
      "name": "reset",
      "outputs": [],
      "stateMutability": "nonpayable",
      "type": "function"
    },
    {
      "inputs": [],
      "name": "update",
      "outputs": [],
      "stateMutability": "nonpayable",
      "type": "function"
    },
    {
      "inputs": [],
      "name": "updateTrigger",
      "outputs": [
        {
          "internalType": "bool",
          "name": "",
          "type": "bool"
        }
      ],
      "stateMutability": "view",
      "type": "function"
    }
  ],
  "transactionHash": "0xa26bcf3c1b6f21bbfb9babcc7c02331d84769869e761d0df152b595ce7031a90",
  "args": [],
  "numDeployments": 4,
  "solcInputHash": "6a76e2faa1ef21121b32abde35b5c6ac",
  "bytecode": "0x608060405234801561001057600080fd5b50336000908152600160208190526040909120805460ff191690911790556118108061003d6000396000f3fe608060405234801561001057600080fd5b50600436106100b45760003560e01c80638ef4b4a1116100715780638ef4b4a1146101805780639855fd7014610193578063a2e62045146101b3578063bc5c27ac146101bb578063bed2324f146101c3578063d826f88f146101d057600080fd5b8063429b62e5146100b957806359f4ed41146100f1578063704802751461011a578063721b2cf11461012f5780637676fe581461014257806383641f541461016d575b600080fd5b6100dc6100c73660046110b4565b60016020526000908152604090205460ff1681565b60405190151581526020015b60405180910390f35b6101046100ff3660046110b4565b610221565b6040516100e89a9998979695949392919061111c565b61012d6101283660046110b4565b610529565b005b61012d61013d36600461129e565b6105c8565b6101556101503660046113fb565b6106ea565b6040516001600160a01b0390911681526020016100e8565b61012d61017b36600461143d565b61073f565b61012d61018e3660046114e0565b6107f9565b6101a66101a13660046110b4565b6108b3565b6040516100e8919061152e565b61012d610c76565b6101a6610cec565b6000546100dc9060ff1681565b61012d3360009081526002602052604080822060038101546001600160a01b0390811684528284206009908101805460ff199081169091556004909301549091168452919092200180549091169055565b60026020526000908152604090208054819061023c9061162b565b80601f01602080910402602001604051908101604052809291908181526020018280546102689061162b565b80156102b55780601f1061028a576101008083540402835291602001916102b5565b820191906000526020600020905b81548152906001019060200180831161029857829003601f168201915b5050506001840154600285015460038601546004870154600588018054979894979396506001600160a01b039283169550911692916102f39061162b565b80601f016020809104026020016040519081016040528092919081815260200182805461031f9061162b565b801561036c5780601f106103415761010080835404028352916020019161036c565b820191906000526020600020905b81548152906001019060200180831161034f57829003601f168201915b5050505050908060060180546103819061162b565b80601f01602080910402602001604051908101604052809291908181526020018280546103ad9061162b565b80156103fa5780601f106103cf576101008083540402835291602001916103fa565b820191906000526020600020905b8154815290600101906020018083116103dd57829003601f168201915b50505050509080600701805461040f9061162b565b80601f016020809104026020016040519081016040528092919081815260200182805461043b9061162b565b80156104885780601f1061045d57610100808354040283529160200191610488565b820191906000526020600020905b81548152906001019060200180831161046b57829003601f168201915b50505050509080600801805461049d9061162b565b80601f01602080910402602001604051908101604052809291908181526020018280546104c99061162b565b80156105165780601f106104eb57610100808354040283529160200191610516565b820191906000526020600020905b8154815290600101906020018083116104f957829003601f168201915b5050506009909301549192505060ff168a565b3360009081526001602081905260409091205460ff161515146105675760405162461bcd60e51b815260040161055e90611665565b60405180910390fd5b6001600160a01b03811660009081526002602052604081206001015490036105a15760405162461bcd60e51b815260040161055e90611694565b6001600160a01b03166000908152600160208190526040909120805460ff19169091179055565b3360009081526001602081905260409091205460ff161515146105fd5760405162461bcd60e51b815260040161055e90611665565b6001600160a01b038216600090815260026020526040902081518291908190610626908261171a565b50602082015160018201556040820151600282015560608201516003820180546001600160a01b039283166001600160a01b031991821617909155608084015160048401805491909316911617905560a08201516005820190610689908261171a565b5060c0820151600682019061069e908261171a565b5060e082015160078201906106b3908261171a565b5061010082015160088201906106c9908261171a565b5061012091909101516009909101805460ff19169115159190911790555050565b33600090815260016020819052604082205460ff1615151461071e5760405162461bcd60e51b815260040161055e90611665565b5080516000908152600360205260409020546001600160a01b03165b919050565b3360009081526001602081905260409091205460ff161515146107745760405162461bcd60e51b815260040161055e90611665565b604080516080810182528581526020808201868152828401869052606083018590526001600160a01b0389166000908152600490925292902081518155915190919060018201906107c5908261171a565b50604082015160028201906107da908261171a565b50606082015160038201906107ef908261171a565b5050505050505050565b3360009081526001602081905260409091205460ff1615151461082e5760405162461bcd60e51b815260040161055e90611665565b6001600160a01b03821660009081526002602052604081206001015490036108685760405162461bcd60e51b815260040161055e90611694565b6001600160a01b038216600090815260026020526040902061088a828261171a565b50506001600160a01b03166000908152600260205260409020600901805460ff19166001179055565b6108bb611036565b3360009081526001602081905260409091205460ff161515146108f05760405162461bcd60e51b815260040161055e90611665565b6001600160a01b038216600090815260026020526040812060010154900361092a5760405162461bcd60e51b815260040161055e90611694565b6001600160a01b038216600090815260026020526040908190208151610140810190925280548290829061095d9061162b565b80601f01602080910402602001604051908101604052809291908181526020018280546109899061162b565b80156109d65780601f106109ab576101008083540402835291602001916109d6565b820191906000526020600020905b8154815290600101906020018083116109b957829003601f168201915b5050509183525050600182015460208201526002820154604082015260038201546001600160a01b039081166060830152600483015416608082015260058201805460a090920191610a279061162b565b80601f0160208091040260200160405190810160405280929190818152602001828054610a539061162b565b8015610aa05780601f10610a7557610100808354040283529160200191610aa0565b820191906000526020600020905b815481529060010190602001808311610a8357829003601f168201915b50505050508152602001600682018054610ab99061162b565b80601f0160208091040260200160405190810160405280929190818152602001828054610ae59061162b565b8015610b325780601f10610b0757610100808354040283529160200191610b32565b820191906000526020600020905b815481529060010190602001808311610b1557829003601f168201915b50505050508152602001600782018054610b4b9061162b565b80601f0160208091040260200160405190810160405280929190818152602001828054610b779061162b565b8015610bc45780601f10610b9957610100808354040283529160200191610bc4565b820191906000526020600020905b815481529060010190602001808311610ba757829003601f168201915b50505050508152602001600882018054610bdd9061162b565b80601f0160208091040260200160405190810160405280929190818152602001828054610c099061162b565b8015610c565780601f10610c2b57610100808354040283529160200191610c56565b820191906000526020600020905b815481529060010190602001808311610c3957829003601f168201915b50505091835250506009919091015460ff16151560209091015292915050565b33600090815260026020526040808220600301546001600160a01b0316825290206009015460ff16151560011480610cd7575033600090815260026020526040808220600401546001600160a01b0316825290206009015460ff1615156001145b15610cea576000805460ff191660011790555b565b610cf4611036565b336000908152600260205260409081902081516101408101909252805482908290610d1e9061162b565b80601f0160208091040260200160405190810160405280929190818152602001828054610d4a9061162b565b8015610d975780601f10610d6c57610100808354040283529160200191610d97565b820191906000526020600020905b815481529060010190602001808311610d7a57829003601f168201915b5050509183525050600182015460208201526002820154604082015260038201546001600160a01b039081166060830152600483015416608082015260058201805460a090920191610de89061162b565b80601f0160208091040260200160405190810160405280929190818152602001828054610e149061162b565b8015610e615780601f10610e3657610100808354040283529160200191610e61565b820191906000526020600020905b815481529060010190602001808311610e4457829003601f168201915b50505050508152602001600682018054610e7a9061162b565b80601f0160208091040260200160405190810160405280929190818152602001828054610ea69061162b565b8015610ef35780601f10610ec857610100808354040283529160200191610ef3565b820191906000526020600020905b815481529060010190602001808311610ed657829003601f168201915b50505050508152602001600782018054610f0c9061162b565b80601f0160208091040260200160405190810160405280929190818152602001828054610f389061162b565b8015610f855780601f10610f5a57610100808354040283529160200191610f85565b820191906000526020600020905b815481529060010190602001808311610f6857829003601f168201915b50505050508152602001600882018054610f9e9061162b565b80601f0160208091040260200160405190810160405280929190818152602001828054610fca9061162b565b80156110175780601f10610fec57610100808354040283529160200191611017565b820191906000526020600020905b815481529060010190602001808311610ffa57829003601f168201915b50505091835250506009919091015460ff161515602090910152919050565b60405180610140016040528060608152602001600081526020016000815260200160006001600160a01b0316815260200160006001600160a01b03168152602001606081526020016060815260200160608152602001606081526020016000151581525090565b80356001600160a01b038116811461073a57600080fd5b6000602082840312156110c657600080fd5b6110cf8261109d565b9392505050565b6000815180845260005b818110156110fc576020818501810151868301820152016110e0565b506000602082860101526020601f19601f83011685010191505092915050565b60006101408083526111308184018e6110d6565b602084018d9052604084018c90526001600160a01b038b811660608601528a16608085015283810360a0850152905061116981896110d6565b905082810360c084015261117d81886110d6565b905082810360e084015261119181876110d6565b90508281036101008401526111a681866110d6565b9150508215156101208301529b9a5050505050505050505050565b634e487b7160e01b600052604160045260246000fd5b604051610140810167ffffffffffffffff811182821017156111fb576111fb6111c1565b60405290565b600082601f83011261121257600080fd5b813567ffffffffffffffff8082111561122d5761122d6111c1565b604051601f8301601f19908116603f01168101908282118183101715611255576112556111c1565b8160405283815286602085880101111561126e57600080fd5b836020870160208301376000602085830101528094505050505092915050565b8035801515811461073a57600080fd5b600080604083850312156112b157600080fd5b6112ba8361109d565b9150602083013567ffffffffffffffff808211156112d757600080fd5b9084019061014082870312156112ec57600080fd5b6112f46111d7565b82358281111561130357600080fd5b61130f88828601611201565b82525060208301356020820152604083013560408201526113326060840161109d565b60608201526113436080840161109d565b608082015260a08301358281111561135a57600080fd5b61136688828601611201565b60a08301525060c08301358281111561137e57600080fd5b61138a88828601611201565b60c08301525060e0830135828111156113a257600080fd5b6113ae88828601611201565b60e08301525061010080840135838111156113c857600080fd5b6113d489828701611201565b82840152505061012091506113ea82840161128e565b828201528093505050509250929050565b60006020828403121561140d57600080fd5b6040516020810181811067ffffffffffffffff82111715611430576114306111c1565b6040529135825250919050565b600080600080600060a0868803121561145557600080fd5b61145e8661109d565b945060208601359350604086013567ffffffffffffffff8082111561148257600080fd5b61148e89838a01611201565b945060608801359150808211156114a457600080fd5b6114b089838a01611201565b935060808801359150808211156114c657600080fd5b506114d388828901611201565b9150509295509295909350565b600080604083850312156114f357600080fd5b6114fc8361109d565b9150602083013567ffffffffffffffff81111561151857600080fd5b61152485828601611201565b9150509250929050565b602081526000825161014080602085015261154d6101608501836110d6565b91506020850151604085015260408501516060850152606085015161157d60808601826001600160a01b03169052565b5060808501516001600160a01b03811660a08601525060a0850151601f19808685030160c08701526115af84836110d6565b935060c08701519150808685030160e08701526115cc84836110d6565b935060e087015191506101008187860301818801526115eb85846110d6565b94508088015192505061012081878603018188015261160a85846110d6565b945080880151925050506116218286018215159052565b5090949350505050565b600181811c9082168061163f57607f821691505b60208210810361165f57634e487b7160e01b600052602260045260246000fd5b50919050565b602080825260159082015274596f7520617265206e6f7420616e2061646d696e2160581b604082015260600190565b6020808252601d908201527f5468697320706572736f6e206973206e6f742072656769737472656421000000604082015260600190565b601f82111561171557600081815260208120601f850160051c810160208610156116f25750805b601f850160051c820191505b81811015611711578281556001016116fe565b5050505b505050565b815167ffffffffffffffff811115611734576117346111c1565b61174881611742845461162b565b846116cb565b602080601f83116001811461177d57600084156117655750858301515b600019600386901b1c1916600185901b178555611711565b600085815260208120601f198616915b828110156117ac5788860151825594840194600190910190840161178d565b50858210156117ca5787850151600019600388901b60f8161c191681555b5050505050600190811b0190555056fea26469706673582212203b371589ca637832358f565f1dcad9e7f9020c13c550ca3db76892664bb02dda64736f6c63430008110033",
  "devdoc": {
    "kind": "dev",
    "methods": {},
    "version": 1
  },
  "userdoc": {
    "kind": "user",
    "methods": {},
    "version": 1
  },
  "storageLayout": {
    "storage": [
      {
        "astId": 3,
        "contract": "contracts/Database.sol:Database",
        "label": "updateTrigger",
        "offset": 0,
        "slot": "0",
        "type": "t_bool"
      },
      {
        "astId": 65,
        "contract": "contracts/Database.sol:Database",
        "label": "admins",
        "offset": 0,
        "slot": "1",
        "type": "t_mapping(t_address,t_bool)"
      },
      {
        "astId": 70,
        "contract": "contracts/Database.sol:Database",
        "label": "idChain",
        "offset": 0,
        "slot": "2",
        "type": "t_mapping(t_address,t_struct(Person)24_storage)"
      },
      {
        "astId": 74,
        "contract": "contracts/Database.sol:Database",
        "label": "digitalChain",
        "offset": 0,
        "slot": "3",
        "type": "t_mapping(t_uint256,t_address)"
      },
      {
        "astId": 79,
        "contract": "contracts/Database.sol:Database",
        "label": "documentNascimentoChain",
        "offset": 0,
        "slot": "4",
        "type": "t_mapping(t_address,t_struct(DocumentNascimento)36_storage)"
      }
    ],
    "types": {
      "t_address": {
        "encoding": "inplace",
        "label": "address",
        "numberOfBytes": "20"
      },
      "t_bool": {
        "encoding": "inplace",
        "label": "bool",
        "numberOfBytes": "1"
      },
      "t_mapping(t_address,t_bool)": {
        "encoding": "mapping",
        "key": "t_address",
        "label": "mapping(address => bool)",
        "numberOfBytes": "32",
        "value": "t_bool"
      },
      "t_mapping(t_address,t_struct(DocumentNascimento)36_storage)": {
        "encoding": "mapping",
        "key": "t_address",
        "label": "mapping(address => struct Database.DocumentNascimento)",
        "numberOfBytes": "32",
        "value": "t_struct(DocumentNascimento)36_storage"
      },
      "t_mapping(t_address,t_struct(Person)24_storage)": {
        "encoding": "mapping",
        "key": "t_address",
        "label": "mapping(address => struct Database.Person)",
        "numberOfBytes": "32",
        "value": "t_struct(Person)24_storage"
      },
      "t_mapping(t_uint256,t_address)": {
        "encoding": "mapping",
        "key": "t_uint256",
        "label": "mapping(uint256 => address)",
        "numberOfBytes": "32",
        "value": "t_address"
      },
      "t_string_storage": {
        "encoding": "bytes",
        "label": "string",
        "numberOfBytes": "32"
      },
      "t_struct(DocumentNascimento)36_storage": {
        "encoding": "inplace",
        "label": "struct Database.DocumentNascimento",
        "members": [
          {
            "astId": 29,
            "contract": "contracts/Database.sol:Database",
            "label": "matricula",
            "offset": 0,
            "slot": "0",
            "type": "t_uint256"
          },
          {
            "astId": 31,
            "contract": "contracts/Database.sol:Database",
            "label": "uf",
            "offset": 0,
            "slot": "1",
            "type": "t_string_storage"
          },
          {
            "astId": 33,
            "contract": "contracts/Database.sol:Database",
            "label": "municipioNascimento",
            "offset": 0,
            "slot": "2",
            "type": "t_string_storage"
          },
          {
            "astId": 35,
            "contract": "contracts/Database.sol:Database",
            "label": "municipioRegistro",
            "offset": 0,
            "slot": "3",
            "type": "t_string_storage"
          }
        ],
        "numberOfBytes": "128"
      },
      "t_struct(Person)24_storage": {
        "encoding": "inplace",
        "label": "struct Database.Person",
        "members": [
          {
            "astId": 5,
            "contract": "contracts/Database.sol:Database",
            "label": "name",
            "offset": 0,
            "slot": "0",
            "type": "t_string_storage"
          },
          {
            "astId": 7,
            "contract": "contracts/Database.sol:Database",
            "label": "cpf",
            "offset": 0,
            "slot": "1",
            "type": "t_uint256"
          },
          {
            "astId": 9,
            "contract": "contracts/Database.sol:Database",
            "label": "id",
            "offset": 0,
            "slot": "2",
            "type": "t_uint256"
          },
          {
            "astId": 11,
            "contract": "contracts/Database.sol:Database",
            "label": "mae",
            "offset": 0,
            "slot": "3",
            "type": "t_address"
          },
          {
            "astId": 13,
            "contract": "contracts/Database.sol:Database",
            "label": "pai",
            "offset": 0,
            "slot": "4",
            "type": "t_address"
          },
          {
            "astId": 15,
            "contract": "contracts/Database.sol:Database",
            "label": "dataNascimento",
            "offset": 0,
            "slot": "5",
            "type": "t_string_storage"
          },
          {
            "astId": 17,
            "contract": "contracts/Database.sol:Database",
            "label": "naturalidade",
            "offset": 0,
            "slot": "6",
            "type": "t_string_storage"
          },
          {
            "astId": 19,
            "contract": "contracts/Database.sol:Database",
            "label": "nacionalidade",
            "offset": 0,
            "slot": "7",
            "type": "t_string_storage"
          },
          {
            "astId": 21,
            "contract": "contracts/Database.sol:Database",
            "label": "sexo",
            "offset": 0,
            "slot": "8",
            "type": "t_string_storage"
          },
          {
            "astId": 23,
            "contract": "contracts/Database.sol:Database",
            "label": "changed",
            "offset": 0,
            "slot": "9",
            "type": "t_bool"
          }
        ],
        "numberOfBytes": "320"
      },
      "t_uint256": {
        "encoding": "inplace",
        "label": "uint256",
        "numberOfBytes": "32"
      }
    }
  }
}