{
  "address": "0xBba1400EC4A30374fBb1A658A446b9cB7C770e25",
  "abi": [
    {
      "inputs": [],
      "stateMutability": "nonpayable",
      "type": "constructor"
    },
    {
      "inputs": [
        {
          "internalType": "address",
          "name": "_wallet",
          "type": "address"
        }
      ],
      "name": "addAdmin",
      "outputs": [],
      "stateMutability": "nonpayable",
      "type": "function"
    },
    {
      "inputs": [
        {
          "internalType": "address",
          "name": "wallet",
          "type": "address"
        },
        {
          "internalType": "uint256",
          "name": "matricula",
          "type": "uint256"
        },
        {
          "components": [
            {
              "internalType": "string",
              "name": "complemento",
              "type": "string"
            },
            {
              "internalType": "string",
              "name": "municipio",
              "type": "string"
            },
            {
              "internalType": "string",
              "name": "uf",
              "type": "string"
            }
          ],
          "internalType": "struct Database.Local",
          "name": "localNascimento",
          "type": "tuple"
        },
        {
          "components": [
            {
              "internalType": "string",
              "name": "complemento",
              "type": "string"
            },
            {
              "internalType": "string",
              "name": "municipio",
              "type": "string"
            },
            {
              "internalType": "string",
              "name": "uf",
              "type": "string"
            }
          ],
          "internalType": "struct Database.Local",
          "name": "localRegistro",
          "type": "tuple"
        },
        {
          "components": [
            {
              "internalType": "string",
              "name": "hora",
              "type": "string"
            },
            {
              "internalType": "string",
              "name": "minuto",
              "type": "string"
            }
          ],
          "internalType": "struct Database.Horario",
          "name": "horaNascimento",
          "type": "tuple"
        },
        {
          "components": [
            {
              "internalType": "string",
              "name": "dia",
              "type": "string"
            },
            {
              "internalType": "string",
              "name": "mes",
              "type": "string"
            },
            {
              "internalType": "string",
              "name": "ano",
              "type": "string"
            }
          ],
          "internalType": "struct Database.Data",
          "name": "dataRegistro",
          "type": "tuple"
        },
        {
          "internalType": "string",
          "name": "numeroDNV",
          "type": "string"
        }
      ],
      "name": "addDocumentNascimento",
      "outputs": [],
      "stateMutability": "nonpayable",
      "type": "function"
    },
    {
      "inputs": [
        {
          "internalType": "address",
          "name": "_wallet",
          "type": "address"
        },
        {
          "components": [
            {
              "internalType": "string",
              "name": "name",
              "type": "string"
            },
            {
              "internalType": "uint256",
              "name": "cpf",
              "type": "uint256"
            },
            {
              "internalType": "uint256",
              "name": "id",
              "type": "uint256"
            },
            {
              "internalType": "address",
              "name": "mae",
              "type": "address"
            },
            {
              "internalType": "address",
              "name": "pai",
              "type": "address"
            },
            {
              "internalType": "string",
              "name": "dataNascimento",
              "type": "string"
            },
            {
              "internalType": "string",
              "name": "naturalidade",
              "type": "string"
            },
            {
              "internalType": "string",
              "name": "nacionalidade",
              "type": "string"
            },
            {
              "internalType": "string",
              "name": "sexo",
              "type": "string"
            },
            {
              "internalType": "bool",
              "name": "changed",
              "type": "bool"
            }
          ],
          "internalType": "struct Database.Person",
          "name": "person",
          "type": "tuple"
        }
      ],
      "name": "addPerson",
      "outputs": [],
      "stateMutability": "nonpayable",
      "type": "function"
    },
    {
      "inputs": [
        {
          "internalType": "address",
          "name": "",
          "type": "address"
        }
      ],
      "name": "admins",
      "outputs": [
        {
          "internalType": "bool",
          "name": "",
          "type": "bool"
        }
      ],
      "stateMutability": "view",
      "type": "function"
    },
    {
      "inputs": [
        {
          "internalType": "address",
          "name": "_wallet",
          "type": "address"
        },
        {
          "internalType": "string",
          "name": "_newName",
          "type": "string"
        }
      ],
      "name": "editName",
      "outputs": [],
      "stateMutability": "nonpayable",
      "type": "function"
    },
    {
      "inputs": [
        {
          "internalType": "address",
          "name": "_wallet",
          "type": "address"
        }
      ],
      "name": "getPersonByWallet",
      "outputs": [
        {
          "components": [
            {
              "internalType": "string",
              "name": "name",
              "type": "string"
            },
            {
              "internalType": "uint256",
              "name": "cpf",
              "type": "uint256"
            },
            {
              "internalType": "uint256",
              "name": "id",
              "type": "uint256"
            },
            {
              "internalType": "address",
              "name": "mae",
              "type": "address"
            },
            {
              "internalType": "address",
              "name": "pai",
              "type": "address"
            },
            {
              "internalType": "string",
              "name": "dataNascimento",
              "type": "string"
            },
            {
              "internalType": "string",
              "name": "naturalidade",
              "type": "string"
            },
            {
              "internalType": "string",
              "name": "nacionalidade",
              "type": "string"
            },
            {
              "internalType": "string",
              "name": "sexo",
              "type": "string"
            },
            {
              "internalType": "bool",
              "name": "changed",
              "type": "bool"
            }
          ],
          "internalType": "struct Database.Person",
          "name": "person",
          "type": "tuple"
        }
      ],
      "stateMutability": "view",
      "type": "function"
    },
    {
      "inputs": [],
      "name": "getPersonData",
      "outputs": [
        {
          "components": [
            {
              "internalType": "string",
              "name": "name",
              "type": "string"
            },
            {
              "internalType": "uint256",
              "name": "cpf",
              "type": "uint256"
            },
            {
              "internalType": "uint256",
              "name": "id",
              "type": "uint256"
            },
            {
              "internalType": "address",
              "name": "mae",
              "type": "address"
            },
            {
              "internalType": "address",
              "name": "pai",
              "type": "address"
            },
            {
              "internalType": "string",
              "name": "dataNascimento",
              "type": "string"
            },
            {
              "internalType": "string",
              "name": "naturalidade",
              "type": "string"
            },
            {
              "internalType": "string",
              "name": "nacionalidade",
              "type": "string"
            },
            {
              "internalType": "string",
              "name": "sexo",
              "type": "string"
            },
            {
              "internalType": "bool",
              "name": "changed",
              "type": "bool"
            }
          ],
          "internalType": "struct Database.Person",
          "name": "",
          "type": "tuple"
        }
      ],
      "stateMutability": "view",
      "type": "function"
    },
    {
      "inputs": [
        {
          "internalType": "address",
          "name": "",
          "type": "address"
        }
      ],
      "name": "idChain",
      "outputs": [
        {
          "internalType": "string",
          "name": "name",
          "type": "string"
        },
        {
          "internalType": "uint256",
          "name": "cpf",
          "type": "uint256"
        },
        {
          "internalType": "uint256",
          "name": "id",
          "type": "uint256"
        },
        {
          "internalType": "address",
          "name": "mae",
          "type": "address"
        },
        {
          "internalType": "address",
          "name": "pai",
          "type": "address"
        },
        {
          "internalType": "string",
          "name": "dataNascimento",
          "type": "string"
        },
        {
          "internalType": "string",
          "name": "naturalidade",
          "type": "string"
        },
        {
          "internalType": "string",
          "name": "nacionalidade",
          "type": "string"
        },
        {
          "internalType": "string",
          "name": "sexo",
          "type": "string"
        },
        {
          "internalType": "bool",
          "name": "changed",
          "type": "bool"
        }
      ],
      "stateMutability": "view",
      "type": "function"
    },
    {
      "inputs": [
        {
          "components": [
            {
              "internalType": "uint256",
              "name": "digital",
              "type": "uint256"
            }
          ],
          "internalType": "struct Database.Digital",
          "name": "digital",
          "type": "tuple"
        }
      ],
      "name": "recoverWallet",
      "outputs": [
        {
          "internalType": "address",
          "name": "wallet",
          "type": "address"
        }
      ],
      "stateMutability": "view",
      "type": "function"
    },
    {
      "inputs": [],
      "name": "update",
      "outputs": [],
      "stateMutability": "nonpayable",
      "type": "function"
    }
  ],
  "transactionHash": "0xf92f178f8af74862b649f71687ab08b161518db170866a7b5a1a4d03a902b991",
  "args": [],
  "numDeployments": 3,
  "solcInputHash": "27e478b4ba0df248add6a6c842251930",
  "bytecode": "0x608060405234801561001057600080fd5b50336000908152600160208190526040909120805460ff19169091179055611a4f8061003d6000396000f3fe608060405234801561001057600080fd5b506004361061009e5760003560e01c8063811b317511610066578063811b3175146101575780638ef4b4a11461016a5780639855fd701461017d578063a2e620451461019d578063bc5c27ac146101a557600080fd5b8063429b62e5146100a357806359f4ed41146100db5780637048027514610104578063721b2cf1146101195780637676fe581461012c575b600080fd5b6100c66100b1366004611171565b60016020526000908152604090205460ff1681565b60405190151581526020015b60405180910390f35b6100ee6100e9366004611171565b6101ad565b6040516100d29a999897969594939291906111d9565b610117610112366004611171565b6104b5565b005b61011761012736600461135b565b610554565b61013f61013a3660046114b8565b610676565b6040516001600160a01b0390911681526020016100d2565b610117610165366004611633565b6106cb565b61011761017836600461171f565b61086a565b61019061018b366004611171565b610924565b6040516100d2919061176d565b610117610ce7565b610190610da9565b6002602052600090815260409020805481906101c89061186a565b80601f01602080910402602001604051908101604052809291908181526020018280546101f49061186a565b80156102415780601f1061021657610100808354040283529160200191610241565b820191906000526020600020905b81548152906001019060200180831161022457829003601f168201915b5050506001840154600285015460038601546004870154600588018054979894979396506001600160a01b0392831695509116929161027f9061186a565b80601f01602080910402602001604051908101604052809291908181526020018280546102ab9061186a565b80156102f85780601f106102cd576101008083540402835291602001916102f8565b820191906000526020600020905b8154815290600101906020018083116102db57829003601f168201915b50505050509080600601805461030d9061186a565b80601f01602080910402602001604051908101604052809291908181526020018280546103399061186a565b80156103865780601f1061035b57610100808354040283529160200191610386565b820191906000526020600020905b81548152906001019060200180831161036957829003601f168201915b50505050509080600701805461039b9061186a565b80601f01602080910402602001604051908101604052809291908181526020018280546103c79061186a565b80156104145780601f106103e957610100808354040283529160200191610414565b820191906000526020600020905b8154815290600101906020018083116103f757829003601f168201915b5050505050908060080180546104299061186a565b80601f01602080910402602001604051908101604052809291908181526020018280546104559061186a565b80156104a25780601f10610477576101008083540402835291602001916104a2565b820191906000526020600020905b81548152906001019060200180831161048557829003601f168201915b5050506009909301549192505060ff168a565b3360009081526001602081905260409091205460ff161515146104f35760405162461bcd60e51b81526004016104ea906118a4565b60405180910390fd5b6001600160a01b038116600090815260026020526040812060010154900361052d5760405162461bcd60e51b81526004016104ea906118d3565b6001600160a01b03166000908152600160208190526040909120805460ff19169091179055565b3360009081526001602081905260409091205460ff161515146105895760405162461bcd60e51b81526004016104ea906118a4565b6001600160a01b0382166000908152600260205260409020815182919081906105b29082611959565b50602082015160018201556040820151600282015560608201516003820180546001600160a01b039283166001600160a01b031991821617909155608084015160048401805491909316911617905560a082015160058201906106159082611959565b5060c0820151600682019061062a9082611959565b5060e0820151600782019061063f9082611959565b5061010082015160088201906106559082611959565b5061012091909101516009909101805460ff19169115159190911790555050565b33600090815260016020819052604082205460ff161515146106aa5760405162461bcd60e51b81526004016104ea906118a4565b5080516000908152600360205260409020546001600160a01b03165b919050565b3360009081526001602081905260409091205460ff161515146107005760405162461bcd60e51b81526004016104ea906118a4565b6040805160c0810182528781526020808201888152828401889052606083018790526080830186905260a083018590526001600160a01b038b16600090815260049092529290208151815591518051919291600183019081906107639082611959565b50602082015160018201906107789082611959565b506040820151600282019061078d9082611959565b50505060408201518051600483019081906107a89082611959565b50602082015160018201906107bd9082611959565b50604082015160028201906107d29082611959565b50505060608201518051600783019081906107ed9082611959565b50602082015160018201906108029082611959565b505050608082015180516009830190819061081d9082611959565b50602082015160018201906108329082611959565b50604082015160028201906108479082611959565b50505060a0820151600c82019061085e9082611959565b50505050505050505050565b3360009081526001602081905260409091205460ff1615151461089f5760405162461bcd60e51b81526004016104ea906118a4565b6001600160a01b03821660009081526002602052604081206001015490036108d95760405162461bcd60e51b81526004016104ea906118d3565b6001600160a01b03821660009081526002602052604090206108fb8282611959565b50506001600160a01b03166000908152600260205260409020600901805460ff19166001179055565b61092c6110f3565b3360009081526001602081905260409091205460ff161515146109615760405162461bcd60e51b81526004016104ea906118a4565b6001600160a01b038216600090815260026020526040812060010154900361099b5760405162461bcd60e51b81526004016104ea906118d3565b6001600160a01b03821660009081526002602052604090819020815161014081019092528054829082906109ce9061186a565b80601f01602080910402602001604051908101604052809291908181526020018280546109fa9061186a565b8015610a475780601f10610a1c57610100808354040283529160200191610a47565b820191906000526020600020905b815481529060010190602001808311610a2a57829003601f168201915b5050509183525050600182015460208201526002820154604082015260038201546001600160a01b039081166060830152600483015416608082015260058201805460a090920191610a989061186a565b80601f0160208091040260200160405190810160405280929190818152602001828054610ac49061186a565b8015610b115780601f10610ae657610100808354040283529160200191610b11565b820191906000526020600020905b815481529060010190602001808311610af457829003601f168201915b50505050508152602001600682018054610b2a9061186a565b80601f0160208091040260200160405190810160405280929190818152602001828054610b569061186a565b8015610ba35780601f10610b7857610100808354040283529160200191610ba3565b820191906000526020600020905b815481529060010190602001808311610b8657829003601f168201915b50505050508152602001600782018054610bbc9061186a565b80601f0160208091040260200160405190810160405280929190818152602001828054610be89061186a565b8015610c355780601f10610c0a57610100808354040283529160200191610c35565b820191906000526020600020905b815481529060010190602001808311610c1857829003601f168201915b50505050508152602001600882018054610c4e9061186a565b80601f0160208091040260200160405190810160405280929190818152602001828054610c7a9061186a565b8015610cc75780601f10610c9c57610100808354040283529160200191610cc7565b820191906000526020600020905b815481529060010190602001808311610caa57829003601f168201915b50505091835250506009919091015460ff16151560209091015292915050565b33600090815260026020526040808220600301546001600160a01b0316825290206009015460ff16151560011480610d48575033600090815260026020526040808220600401546001600160a01b0316825290206009015460ff1615156001145b15610d5b576000805460ff191660011790555b3360009081526002602052604080822060038101546001600160a01b0390811684528284206009908101805460ff199081169091556004909301549091168452919092200180549091169055565b610db16110f3565b336000908152600260205260409081902081516101408101909252805482908290610ddb9061186a565b80601f0160208091040260200160405190810160405280929190818152602001828054610e079061186a565b8015610e545780601f10610e2957610100808354040283529160200191610e54565b820191906000526020600020905b815481529060010190602001808311610e3757829003601f168201915b5050509183525050600182015460208201526002820154604082015260038201546001600160a01b039081166060830152600483015416608082015260058201805460a090920191610ea59061186a565b80601f0160208091040260200160405190810160405280929190818152602001828054610ed19061186a565b8015610f1e5780601f10610ef357610100808354040283529160200191610f1e565b820191906000526020600020905b815481529060010190602001808311610f0157829003601f168201915b50505050508152602001600682018054610f379061186a565b80601f0160208091040260200160405190810160405280929190818152602001828054610f639061186a565b8015610fb05780601f10610f8557610100808354040283529160200191610fb0565b820191906000526020600020905b815481529060010190602001808311610f9357829003601f168201915b50505050508152602001600782018054610fc99061186a565b80601f0160208091040260200160405190810160405280929190818152602001828054610ff59061186a565b80156110425780601f1061101757610100808354040283529160200191611042565b820191906000526020600020905b81548152906001019060200180831161102557829003601f168201915b5050505050815260200160088201805461105b9061186a565b80601f01602080910402602001604051908101604052809291908181526020018280546110879061186a565b80156110d45780601f106110a9576101008083540402835291602001916110d4565b820191906000526020600020905b8154815290600101906020018083116110b757829003601f168201915b50505091835250506009919091015460ff161515602090910152919050565b60405180610140016040528060608152602001600081526020016000815260200160006001600160a01b0316815260200160006001600160a01b03168152602001606081526020016060815260200160608152602001606081526020016000151581525090565b80356001600160a01b03811681146106c657600080fd5b60006020828403121561118357600080fd5b61118c8261115a565b9392505050565b6000815180845260005b818110156111b95760208185018101518683018201520161119d565b506000602082860101526020601f19601f83011685010191505092915050565b60006101408083526111ed8184018e611193565b602084018d9052604084018c90526001600160a01b038b811660608601528a16608085015283810360a085015290506112268189611193565b905082810360c084015261123a8188611193565b905082810360e084015261124e8187611193565b90508281036101008401526112638186611193565b9150508215156101208301529b9a5050505050505050505050565b634e487b7160e01b600052604160045260246000fd5b604051610140810167ffffffffffffffff811182821017156112b8576112b861127e565b60405290565b600082601f8301126112cf57600080fd5b813567ffffffffffffffff808211156112ea576112ea61127e565b604051601f8301601f19908116603f011681019082821181831017156113125761131261127e565b8160405283815286602085880101111561132b57600080fd5b836020870160208301376000602085830101528094505050505092915050565b803580151581146106c657600080fd5b6000806040838503121561136e57600080fd5b6113778361115a565b9150602083013567ffffffffffffffff8082111561139457600080fd5b9084019061014082870312156113a957600080fd5b6113b1611294565b8235828111156113c057600080fd5b6113cc888286016112be565b82525060208301356020820152604083013560408201526113ef6060840161115a565b60608201526114006080840161115a565b608082015260a08301358281111561141757600080fd5b611423888286016112be565b60a08301525060c08301358281111561143b57600080fd5b611447888286016112be565b60c08301525060e08301358281111561145f57600080fd5b61146b888286016112be565b60e083015250610100808401358381111561148557600080fd5b611491898287016112be565b82840152505061012091506114a782840161134b565b828201528093505050509250929050565b6000602082840312156114ca57600080fd5b6040516020810181811067ffffffffffffffff821117156114ed576114ed61127e565b6040529135825250919050565b60006060828403121561150c57600080fd5b6040516060810167ffffffffffffffff82821081831117156115305761153061127e565b81604052829350843591508082111561154857600080fd5b611554868387016112be565b8352602085013591508082111561156a57600080fd5b611576868387016112be565b6020840152604085013591508082111561158f57600080fd5b5061159c858286016112be565b6040830152505092915050565b6000604082840312156115bb57600080fd5b6040516040810167ffffffffffffffff82821081831117156115df576115df61127e565b8160405282935084359150808211156115f757600080fd5b611603868387016112be565b8352602085013591508082111561161957600080fd5b50611626858286016112be565b6020830152505092915050565b600080600080600080600060e0888a03121561164e57600080fd5b6116578861115a565b965060208801359550604088013567ffffffffffffffff8082111561167b57600080fd5b6116878b838c016114fa565b965060608a013591508082111561169d57600080fd5b6116a98b838c016114fa565b955060808a01359150808211156116bf57600080fd5b6116cb8b838c016115a9565b945060a08a01359150808211156116e157600080fd5b6116ed8b838c016114fa565b935060c08a013591508082111561170357600080fd5b506117108a828b016112be565b91505092959891949750929550565b6000806040838503121561173257600080fd5b61173b8361115a565b9150602083013567ffffffffffffffff81111561175757600080fd5b611763858286016112be565b9150509250929050565b602081526000825161014080602085015261178c610160850183611193565b9150602085015160408501526040850151606085015260608501516117bc60808601826001600160a01b03169052565b5060808501516001600160a01b03811660a08601525060a0850151601f19808685030160c08701526117ee8483611193565b935060c08701519150808685030160e087015261180b8483611193565b935060e0870151915061010081878603018188015261182a8584611193565b9450808801519250506101208187860301818801526118498584611193565b945080880151925050506118608286018215159052565b5090949350505050565b600181811c9082168061187e57607f821691505b60208210810361189e57634e487b7160e01b600052602260045260246000fd5b50919050565b602080825260159082015274596f7520617265206e6f7420616e2061646d696e2160581b604082015260600190565b6020808252601d908201527f5468697320706572736f6e206973206e6f742072656769737472656421000000604082015260600190565b601f82111561195457600081815260208120601f850160051c810160208610156119315750805b601f850160051c820191505b818110156119505782815560010161193d565b5050505b505050565b815167ffffffffffffffff8111156119735761197361127e565b61198781611981845461186a565b8461190a565b602080601f8311600181146119bc57600084156119a45750858301515b600019600386901b1c1916600185901b178555611950565b600085815260208120601f198616915b828110156119eb578886015182559484019460019091019084016119cc565b5085821015611a095787850151600019600388901b60f8161c191681555b5050505050600190811b0190555056fea26469706673582212209556fe2a5ea49e1fd0bc828fd075e2e53e7e47d900213ecdb7a897fa0f8803a364736f6c63430008110033",
  "devdoc": {
    "kind": "dev",
    "methods": {},
    "version": 1
  },
  "userdoc": {
    "kind": "user",
    "methods": {},
    "version": 1
  },
  "storageLayout": {
    "storage": [
      {
        "astId": 3,
        "contract": "contracts/Database.sol:Database",
        "label": "notification",
        "offset": 0,
        "slot": "0",
        "type": "t_bool"
      },
      {
        "astId": 92,
        "contract": "contracts/Database.sol:Database",
        "label": "admins",
        "offset": 0,
        "slot": "1",
        "type": "t_mapping(t_address,t_bool)"
      },
      {
        "astId": 97,
        "contract": "contracts/Database.sol:Database",
        "label": "idChain",
        "offset": 0,
        "slot": "2",
        "type": "t_mapping(t_address,t_struct(Person)24_storage)"
      },
      {
        "astId": 101,
        "contract": "contracts/Database.sol:Database",
        "label": "digitalChain",
        "offset": 0,
        "slot": "3",
        "type": "t_mapping(t_uint256,t_address)"
      },
      {
        "astId": 106,
        "contract": "contracts/Database.sol:Database",
        "label": "documentNascimentoChain",
        "offset": 0,
        "slot": "4",
        "type": "t_mapping(t_address,t_struct(DocumentNascimento)63_storage)"
      }
    ],
    "types": {
      "t_address": {
        "encoding": "inplace",
        "label": "address",
        "numberOfBytes": "20"
      },
      "t_bool": {
        "encoding": "inplace",
        "label": "bool",
        "numberOfBytes": "1"
      },
      "t_mapping(t_address,t_bool)": {
        "encoding": "mapping",
        "key": "t_address",
        "label": "mapping(address => bool)",
        "numberOfBytes": "32",
        "value": "t_bool"
      },
      "t_mapping(t_address,t_struct(DocumentNascimento)63_storage)": {
        "encoding": "mapping",
        "key": "t_address",
        "label": "mapping(address => struct Database.DocumentNascimento)",
        "numberOfBytes": "32",
        "value": "t_struct(DocumentNascimento)63_storage"
      },
      "t_mapping(t_address,t_struct(Person)24_storage)": {
        "encoding": "mapping",
        "key": "t_address",
        "label": "mapping(address => struct Database.Person)",
        "numberOfBytes": "32",
        "value": "t_struct(Person)24_storage"
      },
      "t_mapping(t_uint256,t_address)": {
        "encoding": "mapping",
        "key": "t_uint256",
        "label": "mapping(uint256 => address)",
        "numberOfBytes": "32",
        "value": "t_address"
      },
      "t_string_storage": {
        "encoding": "bytes",
        "label": "string",
        "numberOfBytes": "32"
      },
      "t_struct(Data)46_storage": {
        "encoding": "inplace",
        "label": "struct Database.Data",
        "members": [
          {
            "astId": 41,
            "contract": "contracts/Database.sol:Database",
            "label": "dia",
            "offset": 0,
            "slot": "0",
            "type": "t_string_storage"
          },
          {
            "astId": 43,
            "contract": "contracts/Database.sol:Database",
            "label": "mes",
            "offset": 0,
            "slot": "1",
            "type": "t_string_storage"
          },
          {
            "astId": 45,
            "contract": "contracts/Database.sol:Database",
            "label": "ano",
            "offset": 0,
            "slot": "2",
            "type": "t_string_storage"
          }
        ],
        "numberOfBytes": "96"
      },
      "t_struct(DocumentNascimento)63_storage": {
        "encoding": "inplace",
        "label": "struct Database.DocumentNascimento",
        "members": [
          {
            "astId": 48,
            "contract": "contracts/Database.sol:Database",
            "label": "matricula",
            "offset": 0,
            "slot": "0",
            "type": "t_uint256"
          },
          {
            "astId": 51,
            "contract": "contracts/Database.sol:Database",
            "label": "localNascimento",
            "offset": 0,
            "slot": "1",
            "type": "t_struct(Local)39_storage"
          },
          {
            "astId": 54,
            "contract": "contracts/Database.sol:Database",
            "label": "localRegistro",
            "offset": 0,
            "slot": "4",
            "type": "t_struct(Local)39_storage"
          },
          {
            "astId": 57,
            "contract": "contracts/Database.sol:Database",
            "label": "horaNascimento",
            "offset": 0,
            "slot": "7",
            "type": "t_struct(Horario)29_storage"
          },
          {
            "astId": 60,
            "contract": "contracts/Database.sol:Database",
            "label": "dataRegistro",
            "offset": 0,
            "slot": "9",
            "type": "t_struct(Data)46_storage"
          },
          {
            "astId": 62,
            "contract": "contracts/Database.sol:Database",
            "label": "numeroDNV",
            "offset": 0,
            "slot": "12",
            "type": "t_string_storage"
          }
        ],
        "numberOfBytes": "416"
      },
      "t_struct(Horario)29_storage": {
        "encoding": "inplace",
        "label": "struct Database.Horario",
        "members": [
          {
            "astId": 26,
            "contract": "contracts/Database.sol:Database",
            "label": "hora",
            "offset": 0,
            "slot": "0",
            "type": "t_string_storage"
          },
          {
            "astId": 28,
            "contract": "contracts/Database.sol:Database",
            "label": "minuto",
            "offset": 0,
            "slot": "1",
            "type": "t_string_storage"
          }
        ],
        "numberOfBytes": "64"
      },
      "t_struct(Local)39_storage": {
        "encoding": "inplace",
        "label": "struct Database.Local",
        "members": [
          {
            "astId": 34,
            "contract": "contracts/Database.sol:Database",
            "label": "complemento",
            "offset": 0,
            "slot": "0",
            "type": "t_string_storage"
          },
          {
            "astId": 36,
            "contract": "contracts/Database.sol:Database",
            "label": "municipio",
            "offset": 0,
            "slot": "1",
            "type": "t_string_storage"
          },
          {
            "astId": 38,
            "contract": "contracts/Database.sol:Database",
            "label": "uf",
            "offset": 0,
            "slot": "2",
            "type": "t_string_storage"
          }
        ],
        "numberOfBytes": "96"
      },
      "t_struct(Person)24_storage": {
        "encoding": "inplace",
        "label": "struct Database.Person",
        "members": [
          {
            "astId": 5,
            "contract": "contracts/Database.sol:Database",
            "label": "name",
            "offset": 0,
            "slot": "0",
            "type": "t_string_storage"
          },
          {
            "astId": 7,
            "contract": "contracts/Database.sol:Database",
            "label": "cpf",
            "offset": 0,
            "slot": "1",
            "type": "t_uint256"
          },
          {
            "astId": 9,
            "contract": "contracts/Database.sol:Database",
            "label": "id",
            "offset": 0,
            "slot": "2",
            "type": "t_uint256"
          },
          {
            "astId": 11,
            "contract": "contracts/Database.sol:Database",
            "label": "mae",
            "offset": 0,
            "slot": "3",
            "type": "t_address"
          },
          {
            "astId": 13,
            "contract": "contracts/Database.sol:Database",
            "label": "pai",
            "offset": 0,
            "slot": "4",
            "type": "t_address"
          },
          {
            "astId": 15,
            "contract": "contracts/Database.sol:Database",
            "label": "dataNascimento",
            "offset": 0,
            "slot": "5",
            "type": "t_string_storage"
          },
          {
            "astId": 17,
            "contract": "contracts/Database.sol:Database",
            "label": "naturalidade",
            "offset": 0,
            "slot": "6",
            "type": "t_string_storage"
          },
          {
            "astId": 19,
            "contract": "contracts/Database.sol:Database",
            "label": "nacionalidade",
            "offset": 0,
            "slot": "7",
            "type": "t_string_storage"
          },
          {
            "astId": 21,
            "contract": "contracts/Database.sol:Database",
            "label": "sexo",
            "offset": 0,
            "slot": "8",
            "type": "t_string_storage"
          },
          {
            "astId": 23,
            "contract": "contracts/Database.sol:Database",
            "label": "changed",
            "offset": 0,
            "slot": "9",
            "type": "t_bool"
          }
        ],
        "numberOfBytes": "320"
      },
      "t_uint256": {
        "encoding": "inplace",
        "label": "uint256",
        "numberOfBytes": "32"
      }
    }
  }
}