{
  "address": "0x1CD8616DF70878bC5a829B7F571361f1d27A3A30",
  "abi": [
    {
      "inputs": [],
      "stateMutability": "nonpayable",
      "type": "constructor"
    },
    {
      "inputs": [
        {
          "internalType": "address",
          "name": "_wallet",
          "type": "address"
        }
      ],
      "name": "addAdmin",
      "outputs": [],
      "stateMutability": "nonpayable",
      "type": "function"
    },
    {
      "inputs": [
        {
          "internalType": "address",
          "name": "dadAddress",
          "type": "address"
        },
        {
          "internalType": "address",
          "name": "childAddress",
          "type": "address"
        }
      ],
      "name": "addChildDad",
      "outputs": [],
      "stateMutability": "nonpayable",
      "type": "function"
    },
    {
      "inputs": [
        {
          "internalType": "address",
          "name": "momAddress",
          "type": "address"
        },
        {
          "internalType": "address",
          "name": "childAddress",
          "type": "address"
        }
      ],
      "name": "addChildMom",
      "outputs": [],
      "stateMutability": "nonpayable",
      "type": "function"
    },
    {
      "inputs": [
        {
          "internalType": "address",
          "name": "_wallet",
          "type": "address"
        },
        {
          "components": [
            {
              "internalType": "string",
              "name": "name",
              "type": "string"
            },
            {
              "internalType": "uint256",
              "name": "cpf",
              "type": "uint256"
            },
            {
              "internalType": "uint256",
              "name": "id",
              "type": "uint256"
            },
            {
              "internalType": "address",
              "name": "mae",
              "type": "address"
            },
            {
              "internalType": "address",
              "name": "pai",
              "type": "address"
            },
            {
              "internalType": "string",
              "name": "dataNascimento",
              "type": "string"
            },
            {
              "internalType": "string",
              "name": "naturalidade",
              "type": "string"
            },
            {
              "internalType": "string",
              "name": "nacionalidade",
              "type": "string"
            },
            {
              "internalType": "string",
              "name": "sexo",
              "type": "string"
            },
            {
              "internalType": "uint256",
              "name": "matricula",
              "type": "uint256"
            },
            {
              "internalType": "string",
              "name": "nomeMae",
              "type": "string"
            },
            {
              "internalType": "string",
              "name": "nomePai",
              "type": "string"
            }
          ],
          "internalType": "struct Database.Person",
          "name": "person",
          "type": "tuple"
        }
      ],
      "name": "addPerson",
      "outputs": [],
      "stateMutability": "nonpayable",
      "type": "function"
    },
    {
      "inputs": [
        {
          "internalType": "address",
          "name": "",
          "type": "address"
        }
      ],
      "name": "admins",
      "outputs": [
        {
          "internalType": "bool",
          "name": "",
          "type": "bool"
        }
      ],
      "stateMutability": "view",
      "type": "function"
    },
    {
      "inputs": [
        {
          "internalType": "address",
          "name": "",
          "type": "address"
        }
      ],
      "name": "childDadChain",
      "outputs": [
        {
          "internalType": "address",
          "name": "",
          "type": "address"
        }
      ],
      "stateMutability": "view",
      "type": "function"
    },
    {
      "inputs": [
        {
          "internalType": "address",
          "name": "",
          "type": "address"
        }
      ],
      "name": "childMomChain",
      "outputs": [
        {
          "internalType": "address",
          "name": "",
          "type": "address"
        }
      ],
      "stateMutability": "view",
      "type": "function"
    },
    {
      "inputs": [
        {
          "internalType": "uint256",
          "name": "",
          "type": "uint256"
        }
      ],
      "name": "digitalChain",
      "outputs": [
        {
          "internalType": "address",
          "name": "",
          "type": "address"
        }
      ],
      "stateMutability": "view",
      "type": "function"
    },
    {
      "inputs": [
        {
          "internalType": "address",
          "name": "person",
          "type": "address"
        },
        {
          "internalType": "string",
          "name": "_newName",
          "type": "string"
        }
      ],
      "name": "editName",
      "outputs": [],
      "stateMutability": "nonpayable",
      "type": "function"
    },
    {
      "inputs": [
        {
          "internalType": "address",
          "name": "momAddress",
          "type": "address"
        },
        {
          "internalType": "string",
          "name": "_newName",
          "type": "string"
        }
      ],
      "name": "editNameMom",
      "outputs": [],
      "stateMutability": "nonpayable",
      "type": "function"
    },
    {
      "inputs": [
        {
          "internalType": "address",
          "name": "dadAddress",
          "type": "address"
        },
        {
          "internalType": "string",
          "name": "_newName",
          "type": "string"
        }
      ],
      "name": "editNamedad",
      "outputs": [],
      "stateMutability": "nonpayable",
      "type": "function"
    },
    {
      "inputs": [
        {
          "internalType": "address",
          "name": "",
          "type": "address"
        }
      ],
      "name": "idChain",
      "outputs": [
        {
          "internalType": "string",
          "name": "name",
          "type": "string"
        },
        {
          "internalType": "uint256",
          "name": "cpf",
          "type": "uint256"
        },
        {
          "internalType": "uint256",
          "name": "id",
          "type": "uint256"
        },
        {
          "internalType": "address",
          "name": "mae",
          "type": "address"
        },
        {
          "internalType": "address",
          "name": "pai",
          "type": "address"
        },
        {
          "internalType": "string",
          "name": "dataNascimento",
          "type": "string"
        },
        {
          "internalType": "string",
          "name": "naturalidade",
          "type": "string"
        },
        {
          "internalType": "string",
          "name": "nacionalidade",
          "type": "string"
        },
        {
          "internalType": "string",
          "name": "sexo",
          "type": "string"
        },
        {
          "internalType": "uint256",
          "name": "matricula",
          "type": "uint256"
        },
        {
          "internalType": "string",
          "name": "nomeMae",
          "type": "string"
        },
        {
          "internalType": "string",
          "name": "nomePai",
          "type": "string"
        }
      ],
      "stateMutability": "view",
      "type": "function"
    },
    {
      "inputs": [
        {
          "components": [
            {
              "internalType": "uint256",
              "name": "digital",
              "type": "uint256"
            }
          ],
          "internalType": "struct Database.Digital",
          "name": "digital",
          "type": "tuple"
        }
      ],
      "name": "recoverWallet",
      "outputs": [
        {
          "internalType": "address",
          "name": "wallet",
          "type": "address"
        }
      ],
      "stateMutability": "view",
      "type": "function"
    }
  ],
  "transactionHash": "0x83a2b074b40f09a64d268301b4314bca1b5df05e210331fd0161c08682f42287",
  "args": [],
  "numDeployments": 10,
  "solcInputHash": "65ef11f3f1b32f9d81346d16273dd221",
  "bytecode": "0x608060405234801561001057600080fd5b50336000908152602081905260409020805460ff191660011790556112008061003a6000396000f3fe608060405234801561001057600080fd5b50600436106100cf5760003560e01c80637676fe581161008c578063c2597ce811610066578063c2597ce8146101ec578063cfdb391314610215578063d05fd17e14610228578063e57d9e0d1461025157600080fd5b80637676fe58146101b35780638ef4b4a1146101c65780639c083bc8146101d957600080fd5b80631f0df710146100d4578063265171441461011a578063429b62e51461012f57806359f4ed4114610162578063602e7d901461018d57806370480275146101a0575b600080fd5b6100fd6100e2366004610b92565b6004602052600090815260409020546001600160a01b031681565b6040516001600160a01b0390911681526020015b60405180910390f35b61012d610128366004610bb4565b610264565b005b61015261013d366004610b92565b60006020819052908152604090205460ff1681565b6040519015158152602001610111565b610175610170366004610b92565b6102cf565b6040516101119c9b9a99989796959493929190610c2d565b61012d61019b366004610dd2565b6106f0565b61012d6101ae366004610b92565b6107ca565b6100fd6101c1366004610e20565b61085c565b61012d6101d4366004610dd2565b6108b1565b61012d6101e7366004610bb4565b610907565b6100fd6101fa366004610e62565b6002602052600090815260409020546001600160a01b031681565b61012d610223366004610dd2565b610969565b6100fd610236366004610b92565b6003602052600090815260409020546001600160a01b031681565b61012d61025f366004610e7b565b610a3d565b3360009081526020819052604090205460ff1615156001146102a15760405162461bcd60e51b81526004016102989061101c565b60405180910390fd5b6001600160a01b03918216600090815260036020526040902080546001600160a01b03191691909216179055565b6001602052600090815260409020805481906102ea9061104b565b80601f01602080910402602001604051908101604052809291908181526020018280546103169061104b565b80156103635780601f1061033857610100808354040283529160200191610363565b820191906000526020600020905b81548152906001019060200180831161034657829003601f168201915b5050506001840154600285015460038601546004870154600588018054979894979396506001600160a01b039283169550911692916103a19061104b565b80601f01602080910402602001604051908101604052809291908181526020018280546103cd9061104b565b801561041a5780601f106103ef5761010080835404028352916020019161041a565b820191906000526020600020905b8154815290600101906020018083116103fd57829003601f168201915b50505050509080600601805461042f9061104b565b80601f016020809104026020016040519081016040528092919081815260200182805461045b9061104b565b80156104a85780601f1061047d576101008083540402835291602001916104a8565b820191906000526020600020905b81548152906001019060200180831161048b57829003601f168201915b5050505050908060070180546104bd9061104b565b80601f01602080910402602001604051908101604052809291908181526020018280546104e99061104b565b80156105365780601f1061050b57610100808354040283529160200191610536565b820191906000526020600020905b81548152906001019060200180831161051957829003601f168201915b50505050509080600801805461054b9061104b565b80601f01602080910402602001604051908101604052809291908181526020018280546105779061104b565b80156105c45780601f10610599576101008083540402835291602001916105c4565b820191906000526020600020905b8154815290600101906020018083116105a757829003601f168201915b50505050509080600901549080600a0180546105df9061104b565b80601f016020809104026020016040519081016040528092919081815260200182805461060b9061104b565b80156106585780601f1061062d57610100808354040283529160200191610658565b820191906000526020600020905b81548152906001019060200180831161063b57829003601f168201915b50505050509080600b01805461066d9061104b565b80601f01602080910402602001604051908101604052809291908181526020018280546106999061104b565b80156106e65780601f106106bb576101008083540402835291602001916106e6565b820191906000526020600020905b8154815290600101906020018083116106c957829003601f168201915b505050505090508c565b3360009081526020819052604090205460ff1615156001146107245760405162461bcd60e51b81526004016102989061101c565b6001600160a01b038216600090815260016020819052604082200154900361075e5760405162461bcd60e51b815260040161029890611085565b6001600160a01b0380831660009081526004602090815260408083205490931682526001908190529190200154156107c6576001600160a01b0380831660009081526004602090815260408083205490931682526001905220600a016107c4828261110a565b505b5050565b3360009081526020819052604090205460ff1615156001146107fe5760405162461bcd60e51b81526004016102989061101c565b6001600160a01b03811660009081526001602081905260408220015490036108385760405162461bcd60e51b815260040161029890611085565b6001600160a01b03166000908152602081905260409020805460ff19166001179055565b3360009081526020819052604081205460ff1615156001146108905760405162461bcd60e51b81526004016102989061101c565b5080516000908152600260205260409020546001600160a01b03165b919050565b3360009081526020819052604090205460ff1615156001146108e55760405162461bcd60e51b81526004016102989061101c565b6001600160a01b03821660009081526001602052604090206107c4828261110a565b3360009081526020819052604090205460ff16151560011461093b5760405162461bcd60e51b81526004016102989061101c565b6001600160a01b03918216600090815260046020526040902080546001600160a01b03191691909216179055565b3360009081526020819052604090205460ff16151560011461099d5760405162461bcd60e51b81526004016102989061101c565b6001600160a01b03821660009081526001602081905260408220015490036109d75760405162461bcd60e51b815260040161029890611085565b6001600160a01b0380831660009081526003602090815260408083205490931682526001908190529190200154156107c6576001600160a01b0380831660009081526003602090815260408083205490931682526001905220600a016107c4828261110a565b3360009081526020819052604090205460ff161515600114610a715760405162461bcd60e51b81526004016102989061101c565b6001600160a01b038216600090815260016020526040902081518291908190610a9a908261110a565b50602082015160018201556040820151600282015560608201516003820180546001600160a01b039283166001600160a01b031991821617909155608084015160048401805491909316911617905560a08201516005820190610afd908261110a565b5060c08201516006820190610b12908261110a565b5060e08201516007820190610b27908261110a565b506101008201516008820190610b3d908261110a565b506101208201516009820155610140820151600a820190610b5e908261110a565b50610160820151600b820190610b74908261110a565b5050505050565b80356001600160a01b03811681146108ac57600080fd5b600060208284031215610ba457600080fd5b610bad82610b7b565b9392505050565b60008060408385031215610bc757600080fd5b610bd083610b7b565b9150610bde60208401610b7b565b90509250929050565b6000815180845260005b81811015610c0d57602081850181015186830182015201610bf1565b506000602082860101526020601f19601f83011685010191505092915050565b61018081526000610c4261018083018f610be7565b8d60208401528c6040840152610c63606084018d6001600160a01b03169052565b6001600160a01b038b16608084015282810360a0840152610c84818b610be7565b905082810360c0840152610c98818a610be7565b905082810360e0840152610cac8189610be7565b9050828103610100840152610cc18188610be7565b905085610120840152828103610140840152610cdd8186610be7565b9050828103610160840152610cf28185610be7565b9f9e505050505050505050505050505050565b634e487b7160e01b600052604160045260246000fd5b604051610180810167ffffffffffffffff81118282101715610d3f57610d3f610d05565b60405290565b600082601f830112610d5657600080fd5b813567ffffffffffffffff80821115610d7157610d71610d05565b604051601f8301601f19908116603f01168101908282118183101715610d9957610d99610d05565b81604052838152866020858801011115610db257600080fd5b836020870160208301376000602085830101528094505050505092915050565b60008060408385031215610de557600080fd5b610dee83610b7b565b9150602083013567ffffffffffffffff811115610e0a57600080fd5b610e1685828601610d45565b9150509250929050565b600060208284031215610e3257600080fd5b6040516020810181811067ffffffffffffffff82111715610e5557610e55610d05565b6040529135825250919050565b600060208284031215610e7457600080fd5b5035919050565b60008060408385031215610e8e57600080fd5b610e9783610b7b565b9150602083013567ffffffffffffffff80821115610eb457600080fd5b908401906101808287031215610ec957600080fd5b610ed1610d1b565b823582811115610ee057600080fd5b610eec88828601610d45565b8252506020830135602082015260408301356040820152610f0f60608401610b7b565b6060820152610f2060808401610b7b565b608082015260a083013582811115610f3757600080fd5b610f4388828601610d45565b60a08301525060c083013582811115610f5b57600080fd5b610f6788828601610d45565b60c08301525060e083013582811115610f7f57600080fd5b610f8b88828601610d45565b60e0830152506101008084013583811115610fa557600080fd5b610fb189828701610d45565b8284015250506101208084013581830152506101408084013583811115610fd757600080fd5b610fe389828701610d45565b8284015250506101608084013583811115610ffd57600080fd5b61100989828701610d45565b8284015250508093505050509250929050565b602080825260159082015274596f7520617265206e6f7420616e2061646d696e2160581b604082015260600190565b600181811c9082168061105f57607f821691505b60208210810361107f57634e487b7160e01b600052602260045260246000fd5b50919050565b6020808252601d908201527f5468697320706572736f6e206973206e6f742072656769737472656421000000604082015260600190565b601f8211156107c457600081815260208120601f850160051c810160208610156110e35750805b601f850160051c820191505b81811015611102578281556001016110ef565b505050505050565b815167ffffffffffffffff81111561112457611124610d05565b61113881611132845461104b565b846110bc565b602080601f83116001811461116d57600084156111555750858301515b600019600386901b1c1916600185901b178555611102565b600085815260208120601f198616915b8281101561119c5788860151825594840194600190910190840161117d565b50858210156111ba5787850151600019600388901b60f8161c191681555b5050505050600190811b0190555056fea2646970667358221220fb92fb511ac75bb14ca9aeb24750878f57b047fdab14e2b5a1d00b11ade75ec164736f6c63430008110033",
  "devdoc": {
    "kind": "dev",
    "methods": {},
    "version": 1
  },
  "userdoc": {
    "kind": "user",
    "methods": {},
    "version": 1
  },
  "storageLayout": {
    "storage": [
      {
        "astId": 58,
        "contract": "contracts/Database.sol:Database",
        "label": "admins",
        "offset": 0,
        "slot": "0",
        "type": "t_mapping(t_address,t_bool)"
      },
      {
        "astId": 63,
        "contract": "contracts/Database.sol:Database",
        "label": "idChain",
        "offset": 0,
        "slot": "1",
        "type": "t_mapping(t_address,t_struct(Person)26_storage)"
      },
      {
        "astId": 67,
        "contract": "contracts/Database.sol:Database",
        "label": "digitalChain",
        "offset": 0,
        "slot": "2",
        "type": "t_mapping(t_uint256,t_address)"
      },
      {
        "astId": 71,
        "contract": "contracts/Database.sol:Database",
        "label": "childMomChain",
        "offset": 0,
        "slot": "3",
        "type": "t_mapping(t_address,t_address)"
      },
      {
        "astId": 75,
        "contract": "contracts/Database.sol:Database",
        "label": "childDadChain",
        "offset": 0,
        "slot": "4",
        "type": "t_mapping(t_address,t_address)"
      }
    ],
    "types": {
      "t_address": {
        "encoding": "inplace",
        "label": "address",
        "numberOfBytes": "20"
      },
      "t_bool": {
        "encoding": "inplace",
        "label": "bool",
        "numberOfBytes": "1"
      },
      "t_mapping(t_address,t_address)": {
        "encoding": "mapping",
        "key": "t_address",
        "label": "mapping(address => address)",
        "numberOfBytes": "32",
        "value": "t_address"
      },
      "t_mapping(t_address,t_bool)": {
        "encoding": "mapping",
        "key": "t_address",
        "label": "mapping(address => bool)",
        "numberOfBytes": "32",
        "value": "t_bool"
      },
      "t_mapping(t_address,t_struct(Person)26_storage)": {
        "encoding": "mapping",
        "key": "t_address",
        "label": "mapping(address => struct Database.Person)",
        "numberOfBytes": "32",
        "value": "t_struct(Person)26_storage"
      },
      "t_mapping(t_uint256,t_address)": {
        "encoding": "mapping",
        "key": "t_uint256",
        "label": "mapping(uint256 => address)",
        "numberOfBytes": "32",
        "value": "t_address"
      },
      "t_string_storage": {
        "encoding": "bytes",
        "label": "string",
        "numberOfBytes": "32"
      },
      "t_struct(Person)26_storage": {
        "encoding": "inplace",
        "label": "struct Database.Person",
        "members": [
          {
            "astId": 3,
            "contract": "contracts/Database.sol:Database",
            "label": "name",
            "offset": 0,
            "slot": "0",
            "type": "t_string_storage"
          },
          {
            "astId": 5,
            "contract": "contracts/Database.sol:Database",
            "label": "cpf",
            "offset": 0,
            "slot": "1",
            "type": "t_uint256"
          },
          {
            "astId": 7,
            "contract": "contracts/Database.sol:Database",
            "label": "id",
            "offset": 0,
            "slot": "2",
            "type": "t_uint256"
          },
          {
            "astId": 9,
            "contract": "contracts/Database.sol:Database",
            "label": "mae",
            "offset": 0,
            "slot": "3",
            "type": "t_address"
          },
          {
            "astId": 11,
            "contract": "contracts/Database.sol:Database",
            "label": "pai",
            "offset": 0,
            "slot": "4",
            "type": "t_address"
          },
          {
            "astId": 13,
            "contract": "contracts/Database.sol:Database",
            "label": "dataNascimento",
            "offset": 0,
            "slot": "5",
            "type": "t_string_storage"
          },
          {
            "astId": 15,
            "contract": "contracts/Database.sol:Database",
            "label": "naturalidade",
            "offset": 0,
            "slot": "6",
            "type": "t_string_storage"
          },
          {
            "astId": 17,
            "contract": "contracts/Database.sol:Database",
            "label": "nacionalidade",
            "offset": 0,
            "slot": "7",
            "type": "t_string_storage"
          },
          {
            "astId": 19,
            "contract": "contracts/Database.sol:Database",
            "label": "sexo",
            "offset": 0,
            "slot": "8",
            "type": "t_string_storage"
          },
          {
            "astId": 21,
            "contract": "contracts/Database.sol:Database",
            "label": "matricula",
            "offset": 0,
            "slot": "9",
            "type": "t_uint256"
          },
          {
            "astId": 23,
            "contract": "contracts/Database.sol:Database",
            "label": "nomeMae",
            "offset": 0,
            "slot": "10",
            "type": "t_string_storage"
          },
          {
            "astId": 25,
            "contract": "contracts/Database.sol:Database",
            "label": "nomePai",
            "offset": 0,
            "slot": "11",
            "type": "t_string_storage"
          }
        ],
        "numberOfBytes": "384"
      },
      "t_uint256": {
        "encoding": "inplace",
        "label": "uint256",
        "numberOfBytes": "32"
      }
    }
  }
}